S0140000436F6E464C69435475696E6F2E73726563A3
S1130000C4C20000E2C20000E0C200000C94121658
S11300100C9450160C94CC160C948E16D6C2000078
S1130020D4C20000D2C20000D0C20000CEC2000080
S1130030CCC20000CAC20000C8C20000C6C2000090
S1130040C4C20000C2C20000C0C20000BEC20000A0
S1130050BCC20000BAC20000B8C20000B6C20000B0
S1130060B4C200000C94F10F0C94AB0FAEC20000AC
S1130070ACC20000AAC20000A8C20000A6C20000D0
S11300800C943F17A2C20000A0C200009EC2000050
S11300909CC200009AC2000098C2000096C20000F0
S11300A094C2000092C2000090C200008EC2000000
S11300B08CC200008AC200000C94DC1586C20000C9
S11300C084C2000082C200000C940A177EC20000A1
S11300D07CC200007AC2000078C2000076C2000030
S11300E074C200001208BA09BA09BA09BA09BA09ED
S11300F0BA09BA09BA09BA0931084D086908850864
S1130100BA09BA09BA09BA09BA09BA0941085B08AD
S113011077089308BA09BA09BA09BA09BA092508C5
S1130120A108BA09BA09BA09BA09BA09BA09BA09CD
S1130130BA09BA09BA09BA09BA09BA09BA09BA09A3
S1130140BA09BA09BA09BA09AE08BA09BA09BA09A0
S1130150BA09BA09BA09BA09BA09BA09BA09BA0983
S1130160BA09BA09BA09BA09BA09BA09BA09CA0864
S1130170F3080909410957096D098309BA0999095D
S1130180AA09C9097E04540B7E047E047E047E04FD
S11301907E047E047E047E047F0BBD0B040C480C9D
S11301A07E047E047E047E047E047E049E0BE20BA9
S11301B0260C6A0C7E047E047E047E047E047E0487
S11301C08E0CB20CBD0C7E047E047E047E047E0480
S11301D07E047E047E047E047E047E047E047E040B
S11301E07E047E047E047E04E60C7E047E047E048B
S11301F07E047E047E047E047E047E047E047E04EB
S11302007E047E047E047E047E047E047E04210D2E
S1130210600D920DC30DF40D250E570E7E04890E4C
S1130220970E64320D0D0000000000000000000075
S113023000000000000000000000000000000000BA
S1130240000000313A20C501000052504D2020C664
S1130250010025323A20C502000052504D2020C62C
S1130260020025333A20C503000052504D2020C619
S1130270030025C001000020F24320C00400002038
S1130280F24320C002000020F24320C005000020F9
S1130290F24320C003000020F24320C006000020E7
S11302A0F243202020202020202020202020202055
S11302B0202020202020202020202020202020203A
S11302C0202020202020202020202020202020202A
S11302D0202020202020202020202020202020201A
S11302E0202020202020202020202020202020200A
S11302F020202020202020202020202020202020FA
S113030020202020202020202020202020202020E9
S113031020202020202020202020202020202020D9
S113032020202020202020202020202020202020C9
S113033020202020202020202020202020202020B9
S11303402020A9000000000000646464A0A0A0A014
S1130350A0A0A0A0FAFAFAFAFAFAFAFAFAFAFAFA61
S1130360FAFAFAFAFAFAFAFAFAFAFAFAFFFFFFFFD5
S1130370FFFFFFFFFFFFFFFFFFFFFFFFFFFFFFFF89
S1130380FFFFFFFF64210600000AC7C7C7C7C7C72E
S1130390C7C7C7C7C7C7C7C7C7C7C7C7C7C7C7C7E9
S11303A0C7C7C7C7C7C7C7C7C6C3C1BEBCBAB8B625
S11303B0B4B2B0AEADABA9A8A6A5A3A2A09F9D9CC4
S11303C09B9A98979695949291908F8E8D8C8B8A08
S11303D089888786858484838281807F7E7E7D7CF4
S11303E07B7B7A79787877767675747373727171AA
S11303F070706F6E6E6D6D6C6B6B6A6A696868673E
S11304006766666565646463636262616160605FB8
S11304105F5E5E5D5D5C5C5B5B5B5A5A5959585824
S11304205857575656555555545453535352525280
S113043051515050504F4F4F4E4E4D4D4D4C4C4CD2
S11304404B4B4B4A4A4A494949484848474747461B
S1130450464645454544444443434343424242415E
S11304604141404040403F3F3F3E3E3E3E3D3D3D9A
S11304703C3C3C3C3B3B3B3B3A3A3A3939393938D2
S11304803838383737373736363636353535353404
S11304903434343333333332323232313131313034
S11304A03030302F2F2F2F2F2E2E2E2E2D2D2D2D61
S11304B02C2C2C2C2C2B2B2B2B2A2A2A2A2A29298C
S11304C029292928282828272727272726262626B2
S11304D026252525252524242424232323232322D8
S11304E02222222221212121212020202020201FFC
S11304F01F1F1F1F1E1E1E1E1E1D1D1D1D1D1C1C1D
S11305001C1C1C1B1B1B1B1B1B1A1A1A1A1A19193D
S1130510191919191818181818171717171717165B
S1130520161616161515151515151414141414137A
S11305301313131313121212121212111111111197
S11305401110101010100F0F0F0F0F0F0E0E0E0EB4
S11305500E0E0D0D0D0D0D0D0C0C0C0C0C0C0B0BCF
S11305600B0B0B0B0A0A0A0A0A0A090909090909E9
S11305700808080808080707070707070606060605
S11305800606050505050505050411241FBECFEF64
S1130590D1E2DEBFCDBF00E00CBF12E0A0E0B2E0CC
S11305A0E8EAF1E300E00BBF02C007900D92A4312A
S11305B0B107D9F723E0A4E1B2E001C01D92A13B49
S11305C0B207E1F703D00C94D2181ACDCF93DF937E
S11305D0CDB7DEB7C355D1400FB6F894DEBF0FBE1A
S11305E0CDBF0E947B0F0E9474100E94A3150E942D
S11305F0ED1478948AE092E00E94A618813091402C
S1130600B9F47EC0F801EC5AFC4F6491C501800F27
S1130610911F0E94C1180F5F1F4F0633110591F7F8
S11306203FEFE31AF30A44E0E416F10449F417C077
S1130630E12CF12CC12CD12C0F2EF6E39F2EF02DA2
S113064086019E9CC0019F9C900D11240F2EF2E305
S1130650AF2EF1E0BF2EF02DA80EB91ED3CF00E0CF
S113066010E0F801E45BFC4F6491C801865D9E4F85
S11306700E94C1180F5F1F4F0830110591F700E069
S113068010E0F801E85BFC4F6491C8018A5D9E4F5D
S11306900E94C1180F5F1F4F0430110591F700E04D
S11306A010E0F801EC5BFC4F6491C8018E5D9E4F35
S11306B00E94C1180F5F1F4F0430110591F7E2E447
S11306C0F3E085919491682F792F80E291E00E9464
S11306D0CF1800E010E0F801EE5DFD4F6491C80111
S11306E0805090400E94C1180F5F1F4F003281E07C
S11306F0180789F761E071E08AE092E00E94CF1860
S113070080E291E00E94A618C05BDE4F9983888343
S1130710C055D1400E94221848ED50E062E371E0D8
S1130720CE0186960E94961848E050E06AE271E095
S1130730CE014E960E94961844E050E066E271E0C5
S1130740CE018E5E9E4F0E94961844E050E062E215
S113075071E0CE018A5E9E4F0E949618A6E2B0E038
S1130760AC0FBD1FD296CE5CDE4FB983A883C253B3
S1130770D140CE01805D9E4FDE01AE5FBE4FCE5CA8
S1130780DE4FE881F981C253D14041E0BF019D01B0
S113079021503109FB015081F90150834C936A5C6B
S11307A07F4F15966817790791F7C25DDE4F19825E
S11307B01882CE52D140F5E0C35DDE4FF883CD52AE
S11307C0D140C45DDE4F1882CC52D1409E012A5DD7
S11307D03F4FC65EDE4F39832883CA51D1408EEF26
S11307E090E08C0F9D1F0396CC5CDE4F9983888329
S11307F0C453D140AEEFB0E0AC0FBD1F1296CA5C3B
S1130800DE4FB983A883C653D140F901F596C85C7D
S1130810DE4FF983E883C853D14026E230E02C0F41
S11308203D1F205D3F4FC65CDE4F39832883CA538A
S1130830D14086E290E08C0F9D1FC496C45CDE4FCD
S113084099838883CC53D140CA5BDE4F8883C654D6
S1130850D140C95BDE4F9883C754D140C85BDE4F9B
S11308602883C854D140C75BDE4F3883C954D14074
S1130870C65BDE4FE883CA54D140C55BDE4FF883C4
S1130880CB54D140C45BDE4FA883CC54D140C35B6E
S1130890DE4FB883CD54D140CC5CDE4F9881C45335
S11308A0D140C25BDE4F9883CE54D140CB5CDE4F47
S11308B0A881C553D140C15BDE4FA883CF54D1403A
S11308C0FE013696C45EDE4FF983E883CC51D140F5
S11308D0C65DDE4FE883CA52D140C55DDE4FF88362
S11308E0CB52D14022E131E02C0F3D1F2F5F3F4F0F
S11308F0CE5ADE4F39832883C255D140C35DDE4FC3
S11309003881CD52D140353010F40C94BE0EFE0126
S11309107E96DE01569681918D93C65EDE4F888168
S11309209981CA51D140E817F907A9F70C94BE0E72
S1130930C85DDE4FD982C882C852D140F6013197D2
S11309408081882309F4C6C0C65DDE4FE881CA529F
S1130950D140C55DDE4FF881CB52D14096E39A9DDC
S113096090019B9D300D112406E210E00C0F1D1F19
S1130970020F131F285E3F4FA6E2B0E0AC0FBD1F6D
S11309802A0F3B1F312C4190D8014D918D01441603
S1130990A0F0D9016C91641580F050E070E0641B04
S11309A0750B84E690E00E943B18842D841B869F7F
S11309B0602D1124361608F4362ED9018D919D012F
S11309C0841530F4611002C0372C02C0252C372C5A
S11309D0EE15FF05C1F6F4018081813009F441C0B0
S11309E020F0823009F0B9C045C0C25EDE4FA88154
S11309F0B981CE51D1401C92C85DDE4FA881B98126
S1130A00C852D1408C918823D9F0CC5DDE4FA881A7
S1130A10B981C452D1408C91831508F09EC0B1E0D5
S1130A20B083CA5DDE4FE881F981C652D14080812E
S1130A30CE5DDE4FE881F981C252D14080838DC002
S1130A4021E02083CA5DDE4FE881F981C652D1409E
S1130A508081CE5DDE4FE881F981C252D14080832E
S1130A607CC024E6C25EDE4FE881F981CE51D140DC
S1130A70208373C031100AC0C85DDE4FA881B981DC
S1130A80C852D1408C91813009F41082C85DDE4F88
S1130A90E881F981C852D1403397408184E690E0DF
S1130AA0841B9109389E9001399E300D112436958E
S1130AB0279536952795ABE7B4E10E94761896956D
S1130AC08795480FC25EDE4FE881F981CE51D1404F
S1130AD0408343C0F4018081813029F118F08230D1
S1130AE0E1F52AC0C25EDE4FA881B981CE51D14062
S1130AF01C92C05EDE4FA881B981C052D1408C9156
S1130B00882359F1B1E0B083CA5DDE4FE881F981F1
S1130B10C652D1408081CE5DDE4FE881F981C25258
S1130B20D14080831AC024E6C25EDE4FE881F98199
S1130B30CE51D140208311C0C05EDE4FA881B9815F
S1130B40C052D1408C91C25EDE4FA881B981CE5192
S1130B50D1408C93811101C01082BFEFAB1ABB0A44
S1130B60E5E08E0E911CCA5DDE4FE881F981C65224
S1130B70D140F696CA5DDE4FF983E883C652D14070
S1130B80CE5DDE4FE881F981C252D1403596CE5D0B
S1130B90DE4FF983E883C252D140C25EDE4FE88162
S1130BA0F981CE51D1403596C25EDE4FF983E88398
S1130BB0CE51D140CC5DDE4FE881F981C452D140A1
S1130BC0F696CC5DDE4FF983E883C452D140C05E13
S1130BD0DE4FE881F981C052D140F696C05EDE4F07
S1130BE0F983E883C052D140F6E3CF0ED11C24E050
S1130BF0A216B10409F09CCE8E010E5F1E4F712C1B
S1130C00F12CEE24E394F801329760818F2D0E9439
S1130C105D178F2D0E94E617F80134979183808326
S1130C20D8012C91223069F4892B59F4C95EDE4F26
S1130C308881C751D140882321F0B3E0FB1639F0F5
S1130C407E2CF3940B5F1F4FE4E0FE12DCCF0E9476
S1130C5008186C01C85EDE4F88809980C851D14065
S1130C60CE5EDE4F8881C251D140882321F081308D
S1130C7009F0B1C019C0CD5EDE4F6881C351D140C7
S1130C8084E00E945D17CC5EDE4F6881C451D14080
S1130C9085E00E945D17CB5EDE4F6881C551D1406F
S1130CA086E00E945D17AAC0C25DDE4F28813981AB
S1130CB0CE52D1402436310588F4C25DDE4F6881BE
S1130CC0CE52D14084E00E945D1760E085E00E942E
S1130CD05D1760E086E00E945D1790C0C25DDE4F44
S1130CE088819981CE52D140883C910570F468EC9A
S1130CF0681B84E00E945D1760E085E00E945D1738
S1130D0060E086E00E945D1779C0C25DDE4FA88175
S1130D10B981CE52D140AC32B14090F4C25DDE4FC5
S1130D206881CE52D140685C85E00E945D1760E026
S1130D3084E00E945D1760E086E00E945D175EC05B
S1130D40C25DDE4F28813981CE52D140203941E045
S1130D50340770F460E9621B85E00E945D1760E06F
S1130D6084E00E945D1760E086E00E945D1746C043
S1130D70C25DDE4F88819981CE52D140843F91403B
S1130D8090F4C25DDE4F6881CE52D140605986E056
S1130D900E945D1760E084E00E945D1760E085E0DA
S1130DA00E945D172BC0C25DDE4FE881F981CE52EF
S1130DB0D140E83522E0F207D8F468E56E1B86E0FE
S1130DC00E945D1760E084E00E945D1760E085E0AA
S1130DD00E945D1713C060E086E00E945D1760E02A
S1130DE085E00E945D1764E684E00E945D1706C0FA
S1130DF0C25DDE4F19821882CE52D1400E9427185C
S1130E00882381F18EEF90E08C0F9D1F4796FE01A1
S1130E10EE5FFE4F32E0BF01C05DDE4FA881B981B5
S1130E20C053D140AD012C91223010F021502C93AD
S1130E30FA012081213019F41082FB0130831596C8
S1130E406B5F7F4FA817B90769F7C35DDE4FF88161
S1130E50CD52D140FF3F31F0FF5FC35DDE4FF883D9
S1130E60CD52D1400E943118882309F4C6C00F2EF8
S1130E70F6E0AF2EB12CF02DAC0EBD1E7E0126E1A6
S1130E80E20EF11CC65DDE4F0881CA52D140C55D39
S1130E90DE4F1881CB52D140802FC45EDE4F3881A3
S1130EA0CC51D140831B0E942D15D8018D938D0107
S1130EB0AE15BF0589F7C25DDE4FE881F981CE52D8
S1130EC0D1403196C25DDE4FF983E883CE52D140E2
S1130ED0C45DDE4FF881CC52D140FF5FC45DDE4F6C
S1130EE0F883CC52D1401982F33009F446C030F46F
S1130EF0F13081F0F23009F080C01DC0C45DDE4FD6
S1130F002881CC52D140243009F442C0253009F064
S1130F1074C055C08EE18A8310E01F5F1B83D50126
S1130F208D915D018C831D82CE0101960E940D126C
S1130F30183199F762C082E38A8381E08B832C8223
S1130F401D82CE0101960E940D1282E08B837C8269
S1130F501D82CE0101960E940D1283E08B8381E0F5
S1130F6090E0C814D90410F080E090E09D838C8355
S1130F70CE0101960E940D1240C08CE38A8381E069
S1130F808B83DD82CC82CE0101960E940D1235C086
S1130F908DE38A838E0102501F4FF12CF394FB8260
S1130FA0F801808191819D838C83CE0101960E94FA
S1130FB00D120B5F1F4FF4E0FF12F0CF1EC08EE343
S1130FC08A8310E0F12ECC5BDE4F08811981C45472
S1130FD0D140F394FB82D8018C918C831D82CE0185
S1130FE001960E940D120B5F1F4FB4E0FB12F1CF6C
S1130FF0C45DDE4F1882CC52D140CE0101960E94CE
S1131000831081117BCC89818111B4C18A8190E0E4
S1131010FC013197EF34F10508F0ACC1EE58FF4FF5
S11310200C9470188B818A3A09F068CC8C819D816C
S11310308535910509F062CCF894A895EFE9FFE0B5
S11310403197F1F700C0000095C18B81FE01E80FD4
S1131050F11D8C818583C35DDE4F1882CD52D14052
S113106089C18B8190E001976C81E6E2F0E0EC0F9E
S1131070FD1FE80FF91F60838E5C9E4F0E94AB1822
S113108079C18B8190E06C81FE01E80FF91F65AF97
S1131090875B9E4F0E94AB186DC18B8190E06C8181
S11310A0FE01E80FF91FE55AFF4F608389599E4FEF
S11310B00E94AB185FC18B8190E06C81FE01E80F48
S11310C0F91FED58FF4F608381589E4F0E94AB1863
S11310D051C18B8190E06C81FE01E80FF91FEF563E
S11310E0FF4F608383569E4F0E94AB1843C18B8190
S11310F090E06C81FE01E80FF91FE755FF4F608314
S11311008B549E4F0E94AB1835C18B8190E06C814B
S1131110FE01E80FF91FE953FF4F60838D529E4F84
S11311200E94AB1827C18B8190E06C81FE01E80F0F
S1131130F91FE152FF4F608385519E4F0E94AB1807
S113114019C18B8190E041976C81FE01E80FF91F72
S1131150668F865D9E4F0E94AB180CC18B818130D7
S113116059F46C81CA5EDE4F6883C651D14082E275
S113117091E00E94AB18FEC0823009F0BFCB6C81B5
S1131180C95EDE4F6883C751D14083E291E00E947B
S1131190AB18F0C08B818130B1F42C813D81C05BF0
S11311A0DE4F39832883C055D140C9010E942218DB
S11311B0C05BDE4F68817981C055D14080E291E007
S11311C00E94BD18D7C0823009F098CB6C817D8114
S11311D0C85EDE4F79836883C851D14084E291E0D0
S11311E00E94BD18C7C02B8130E0215031096C81A9
S11311F046E3429FC001439F900D1124FE01E80F76
S1131200F91FEA5AFF4F60838E599E4F0E94AB1814
S1131210B1C08C819D81009781F48B8190E001970E
S113122026E3289FF001299FF00D1124EC0FFD1FE8
S1131230E85AFF4F81E080830FC02B8130E02150BA
S1131240310996E3929FF001939FF00D1124EC0F66
S1131250FD1FE85AFF4F80832B8130E02150310974
S113126046E3429FC001439F900D1124FE01E80F05
S1131270F91FE85AFF4F60818C599E4F0E94AB18AA
S113128079C02B8130E0215031096C8146E3429FC3
S1131290C001439F900D1124FE01E80FF91FE95A84
S11312A0FF4F60838D599E4F0E94AB1863C02B8102
S11312B030E0215031096C8146E3429FC001439FD5
S11312C0900D1124FE01E80FF91FE75AFF4F6083C8
S11312D08B599E4F0E94AB184DC02B8130E021509A
S11312E031096C8146E3429FC001439F900D112454
S11312F0FE01E80FF91FE65AFF4F60838A599E4F9B
S11313000E94AB1837C02B8130E0215031096C8129
S113131046E3429FC001439F900D1124FE01E80F54
S1131320F91FE55AFF4F608389599E4F0E94AB18FD
S113133021C06C81CE5EDE4F6883C251D14086E20B
S113134091E00E94AB18C25DDE4F19821882CE5222
S1131350D14010C08B8190E0FC0131976C81A2E1F7
S1131360B1E0AC0FBD1FEA0FFB1F61838A5D9E4F86
S11313700E94AB188981813009F0C0CA1982EA81C0
S1131380F0E0E035F10508F0B9CAEF53FF4F0C94D3
S1131390701812E01A8381E08B8385E090E09D83CE
S11313A08C83CE0101960E940D121B8381E090E094
S11313B09D838C83CE0101960E940D120F2EF6E2BE
S11313C0AF2EB12CF02DAC0EBD1E6E01BEE3CB0EC4
S11313D0D11C7501E6E3EE0EF11C9E012C583F4F23
S11313E0C25EDE4F39832883CE51D1404E0132E9AB
S11313F0830E911C3E014AEA640E711C2E0188EC96
S1131400480E511C1E0190EE290E311C10E008E11B
S1131410ABE0AA831F5F1B83F50181915F018C837D
S11314201D82CE010196F9D7F5E1FA83D6018D919B
S11314306D018C831D82CE010196EFD7BCE0BA8387
S1131440F70181917F018C831D82CE010196E5D73E
S1131450F6E1FA83C25EDE4FA881B981CE51D14054
S11314608D91C25EDE4FB983A883CE51D1408C8367
S11314701D82CE010196D1D7BDE0BA83F4018191DA
S11314804F018C831D82CE010196C7D7F7E1FA8301
S1131490D3018D913D018C831D82CE010196BDD770
S11314A0BEE0BA83F20181912F018C831D82CE01AB
S11314B00196B3D70A83D1018D911D018C831D82BE
S11314C0CE010196AAD7183109F0A2CF8FE18A8301
S11314D08E01025E1F4F0F2EF1E1FF2EF02DFB82D5
S11314E0F80181918F018C831D82CE01019695D7DD
S11314F0F394F9E1FF12F3CF80E28A8381E08B83D6
S11315000E949A158C831D82CE01019686D781E2B2
S11315108A8310E00CC0012F0F5F0B83812F0E9480
S11315209D158C831D82CE01019677D7102F0E94C2
S11315309A15212F30E048E0849FC0011124281718
S113154039074CF383E38A8301E00B83CA5EDE4FE1
S11315508881C651D1408C831D82CE0101965DD70E
S113156012E01B83C95EDE4F8881C751D1408C8352
S11315701D82CE01019651D786E48A830B83C05B1A
S1131580DE4F88819981C055D1409D838C83CE01E3
S1131590019643D71B83C85EDE4F88819981C85169
S11315A0D1409D838C83CE01019637D710E00F2E56
S11315B0F7E4BF2EF02D0F2EF8E4CF2EF02D0F2ED2
S11315C0F9E4DF2EF02D0F2EFAE4EF2EF02D0F2E7E
S11315D0FBE4FF2EF02D0CE4C25CDE4F8880998082
S11315E0CE53D140BA821F5F1B83F40135978081AB
S11315F08C831D82CE01019610D7CA82F4013397E1
S113160080818C831D82CE01019607D7DA82F40192
S1131610349780818C831D82CE010196FED6EA82A6
S1131620F401329780818C831D82CE010196F5D618
S1131630FA82F401319780818C831D82CE01019658
S1131640ECD60A83D4018C918C831D82CE01019641
S1131650E4D6B6E38B0E911C143009F0C3CF8EE4AC
S11316608A8381E08B83CE5EDE4F8881C251D14074
S11316708C831D82CE010196D0D68FE48A83CE5A04
S1131680DE4F08811981C255D140F12CF394FB82BD
S1131690F80181918F018C831D82CE010196BDD604
S11316A0F3E0FF12F3CF2AC98B81811113C081E0CB
S11316B08B8385E090E09D838C83CE010196ADD62B
S11316C082E08B8381E090E09D838C83CE01019640
S11316D0A4D614C9813041F485E090E09D838C83C5
S11316E0CE0101969AD60AC9823009F007C981E071
S11316F090E09D838C83CE0101968FD6FFC88B81A9
S1131700811112C08E010A5D1F4FF12CF394FB82EC
S1131710D8018D918D018C831D82CE0101967DD6D9
S1131720B8E1FB12F3CFEAC8FE01E80FF11D85A171
S11317308C831D82CE01019670D6E0C88B81811105
S113174012C08E01025C1F4FF12CF394FB82F8014E
S113175081918F018C831D82CE0101965ED6F8E1C2
S1131760FF12F3CFCBC8FE01E80FF11D85AD8C83CA
S11317701D82CE01019651D6C1C88B81811115C03D
S113178006E210E00C0F1D1F0A5C1F4FF12CF394AE
S1131790FB82D8018D918D018C831D82CE0101962F
S11317A03CD6B8E1FB12F3CFA9C8EBE5F0E0EC0FAF
S11317B0FD1FE80FF11D80818C831D82CE010196EF
S11317C02CD69CC88B81811112C08E010C581F4FDE
S11317D0F12CF394FB82F80181918F018C831D829B
S11317E0CE0101961AD6F8E1FF12F3CF87C8E3E7DA
S11317F0F0E0EC0FFD1FE80FF11D80818C831D824A
S1131800CE0101960AD67AC88B81811112C08E014D
S11318100E561F4FF12CF394FB82D8018D918D014C
S11318208C831D82CE010196F8D5B8E1FB12F3CF6B
S113183065C8E1E9F0E0EC0FFD1FE80FF11D8081C0
S11318408C831D82CE010196E8D558C88B81811105
S113185012C08E0106551F4FF12CF394FB82F80140
S113186081918F018C831D82CE010196D6D5F8E13A
S1131870FF12F3CF43C8E9EAF0E0EC0FFD1FE80FD5
S1131880F11D80818C831D82CE010196C6D536C898
S11318908B81811112C08E0108531F4FF12CF394D8
S11318A0FB82D8018D918D018C831D82CE0101961E
S11318B0B4D5B8E1FB12F3CF21C8E7ECF0E0EC0FAC
S11318C0FD1FE80FF11D80818C831D82CE010196DE
S11318D0A4D514C88B81811113C08E0100521F4FEF
S11318E0F12CF394FB82F80181918F018C831D828A
S11318F0CE01019692D5F8E1FF12F3CF0C947E0449
S1131900EFEDF0E0EC0FFD1FE80FF11D80818C83FB
S11319101D82CE01019681D50C947E048B818111A8
S113192016C08E01025E1F4F0F2EF1E1FF2EF02D27
S1131930FB82D8018D918D018C831D82CE0101968D
S11319406CD5F394B9E1FB12F3CF0C947E04FE0141
S1131950E80FF11D85858C831D82CE0101965DD52E
S11319600C947E0481E08B830E949A158C831D82E3
S1131970CE01019652D50C947E048B81882371F09C
S11319801BC0012F0F5F0B83812F0E949D158C8339
S11319901D82CE01019641D5102F01C010E00E9496
S11319A09A15212F30E0E8E08E9FC00111242817FA
S11319B039073CF30C947E0481500E949D158C835E
S11319C01D82CE01019629D50C947E048B81813031
S11319D001F128F0823011F00C947E0426C081E0DD
S11319E08B83CA5EDE4F8881C651D1408C831D82B1
S11319F0CE01019612D582E08B83C95EDE4F8881C9
S1131A00C751D1408C831D82CE01019606D50C941A
S1131A107E04CA5EDE4F8881C651D1408C831D820C
S1131A20CE010196FAD40C947E04C95EDE4F8881FF
S1131A30C751D1408C831D82CE010196EED40C9403
S1131A407E048B81813011F128F0823011F00C94E6
S1131A507E0429C081E08B83C05BDE4F28813981FD
S1131A60C055D1403D832C83CE010196D6D482E06B
S1131A708B83C85EDE4F88819981C851D1409D8394
S1131A808C83CE010196C9D40C947E04C05BDE4FD6
S1131A9088819981C055D1409D838C83CE01019664
S1131AA0BCD40C947E04C85EDE4F88819981C851F1
S1131AB0D1409D838C83CE010196AFD40C947E04D7
S1131AC08B81811118C010E0F12ECE5BDE4F0881AE
S1131AD01981C254D140F394FB82D8018C918C8338
S1131AE01D82CE01019699D40A5C1F4FB4E0FB120B
S1131AF0F2CF0C947E0490E0019726E3289FF00136
S1131B00299FF00D112421E030E02C0F3D1FE20F3E
S1131B10F31FEB5AFF4F80818C831D82C9017DD452
S1131B200C947E048B81811117C0CE5CDE4F08813A
S1131B301981C253D140F12CF394FB82D8018C91CA
S1131B408C831D82CE01019668D40A5C1F4FB4E0D9
S1131B50FB12F2CF0C947E0490E0019726E3289FB9
S1131B60F001299FF00D112421E030E02C0F3D1FDE
S1131B70E20FF31FE95AFF4F80818C831D82C90154
S1131B804CD40C947E048B81811117C006E210E0C2
S1131B900C0F1D1F0F5C1F4FF12CF394FB82D80117
S1131BA08C918C831D82CE01019637D40A5C1F4F21
S1131BB0B4E0FB12F2CF0C947E0490E0019726E38C
S1131BC0289FF001299FF00D112421E030E02C0F13
S1131BD03D1FE20FF31FEA5AFF4F80818C831D8261
S1131BE0C9011BD40C947E048B81811117C006E2B9
S1131BF010E00C0F1D1F0D5C1F4FF12CF394FB82A2
S1131C00D8018C918C831D82CE01019606D40A5C86
S1131C101F4FB4E0FB12F2CF0C947E0490E00197C6
S1131C2026E3289FF001299FF00D112421E030E0E4
S1131C302C0F3D1FE20FF31FE85AFF4F80818C8366
S1131C401D82C901EAD30C947E048B81811118C0D2
S1131C5010E0F12EC05CDE4F08811981C054D140E0
S1131C60F394FB82D8018C918C831D82CE01019662
S1131C70D4D30A5C1F4FB4E0FB12F2CF0C947E0461
S1131C8090E0019726E3289FF001299FF00D11248D
S1131C9021E030E02C0F3D1FE20FF31FE75AFF4F06
S1131CA080818C831D82C901B8D30C947E048B81FE
S1131CB0811118C010E0F12EC25CDE4F0881198139
S1131CC0CE53D140F394FB82D8018C918C831D8236
S1131CD0CE010196A2D30A5C1F4FB4E0FB12F2CFEF
S1131CE00C947E0490E0019726E3289FF001299F3D
S1131CF0F00D112421E030E02C0F3D1FE20FF31F03
S1131D00E65AFF4F80818C831D82C90186D30C94CF
S1131D107E0481E08B83CE5EDE4F8881C251D14048
S1131D208C831D82CE01019678D30C947E048B8122
S1131D30811116C0CE5ADE4F08811981C255D14097
S1131D40F12CF394FB82D8018D918D018C831D823B
S1131D50CE01019662D3B3E0FB12F3CF0C947E0460
S1131D60E2E1F1E0EC0FFD1FE80FF11D80818C83AF
S1131D701D82CE01019651D30C947E04CA5EDE4FBF
S1131D806880C651D140CC5CDE4FE881F981C453F0
S1131D90D140C05DDE4FF983E883C053D140CA5CB3
S1131DA0DE4F28813981C653D140CC5BDE4F398365
S1131DB02883C454D140C85CDE4F88819981C853BC
S1131DC0D140C25CDE4F99838883CE53D140C65C38
S1131DD0DE4FA881B981CA53D140CE5BDE4FB983AF
S1131DE0A883C254D140C45CDE4FE881F981CC534E
S1131DF0D140C05CDE4FF983E883C054D140CA5B54
S1131E00DE4FC880C654D140C95BDE4FD880C7546A
S1131E10D140C85BDE4FF881C854D140C05EDE4F6C
S1131E20F883C052D140C75BDE4F2881C954D140EA
S1131E30CF5DDE4F2883C152D140C65BDE4F38816F
S1131E40CA54D140CC5DDE4F3883C452D140C55B07
S1131E50DE4F4881CB54D140CB5DDE4F4883C55221
S1131E60D140C45BDE4F8881CC54D140C25EDE4F8A
S1131E708883CE51D140C35BDE4F9881CD54D1408D
S1131E80C15EDE4F9883CF51D140C25BDE4FA88143
S1131E90CE54D140CE5DDE4FA883C252D140C15B47
S1131EA0DE4FB881CF54D140CD5DDE4FB883C352ED
S1131EB0D140CE5CDE4FE881F981C253D140CA5D86
S1131EC0DE4FF983E883C652D1406894882481F8B0
S1131ED0992493948C0E9D1EA12CB12C212C7E014F
S1131EE0FEE1EF0EF11C552453940F2EF4E67F2EE1
S1131EF0F02D0C94980480EF84B917B81AB882E0D6
S1131F008DB910BA88E78093010110920A010895EF
S1131F10CF93DF936623E1F0282FA82FB92FE1ECAC
S1131F20F0E080818F7D8083C0911603D0E0C85E8D
S1131F30DC4F8D918883809116038F5F8F7380931C
S1131F4016038081806280838A2F821B861748F360
S1131F50DF91CF9108951F920F920FB60F92112423
S1131F600BB60F928F939F93EF93FF93E091170318
S1131F70F0E0E85EFC4F80818093C60080911703F7
S1131F808F5F8F73809317039091170380911603CB
S1131F90981305C0E1ECF0E080818F7D8083FF9190
S1131FA0EF919F918F910F900BBE0F900FBE0F90EA
S1131FB01F9018958091C10085FF0FC09091160362
S1131FC080911703981759F0909116038091170385
S1131FD0981B9F7380E4891B089580E4089580E032
S1131FE008951F920F920FB60F9211240BB60F9201
S1131FF08F93EF93FF93E0911402F0E08091C60079
S1132000EA5EFD4F8083809114028F5F80931402F7
S1132010FF91EF918F910F900BBE0F900FBE0F9019
S11320201F9018952091150230911402231709F47A
S113203059C0E22FF0E0EA5EFD4F30813D3041F4BB
S113204036C0E22FF0E0EA5EFD4F30813D3089F189
S11320502F5F309114023213F4CF80E00895E091A1
S11320601502F0E0EA5EFD4F2081FC01E70FF11D4F
S11320702083209115022F5F209315027F5F272F65
S113208030E024173507D1F4E0911502F0E0EA5E60
S1132090FD4F20812D3091F0FC01E70FF11D1082DE
S11320A0809115028F5F8093150280E0089570E09F
S11320B001C070E0462F50E041505109E0911502F3
S11320C0F0E0EA5EFD4F20812D3049F6FC01E70F78
S11320D0F11D1082809115028F5F80931502872F66
S11320E08F5F089580E0089580E190E09093C500AB
S11320F08093C4001092C00086E08093C20088E9F7
S11321008093C10008950F931F93CF93DF93CDB7AE
S1132110DEB765970FB6F894DEBF0FBECDBF8C0156
S113212060E1CE0101967EDF882309F43CC18A3048
S113213008F43BC1813108F03AC1FE01319620E038
S113214030E0A0E070E0A9019191933209F57F5F3E
S1132150713019F4213081F02CC1723019F424301B
S1132160B9F029C1733041F4263008F426C129306E
S113217008F025C1A22F0CC0753051F44A1B510937
S1132180423051050CF41DC1473051050CF01BC100
S11321902F5F3F4F2817B8F2743009F016C18981B8
S11321A08053F80180839C8190518B81880F282F64
S11321B0220F220F820F890F81838E81833209F0CF
S11321C016C105C181E001C082E08230C9F08330CC
S11321D029F0813009F0FDC020C08B8B9B89905D74
S11321E08989F4E68F9F900D11248A89880F282FFE
S11321F0220F220F820F890FF8018283A9E012C0F7
S11322009A8990518989880F282F220F220F820FD3
S1132210890FF8018283A8E005C089898053F801F9
S11322208283A7E0B0E0FE01EA0FFB1F81818332C5
S113223009F0D5C0D0C09D91933229F091938F5F5E
S11322408530C9F710C0833009F472C038F4813086
S113225009F4A1C0823009F0C0C088C08430E9F11B
S1132260853009F0BAC02D8930E0205D34418B8976
S1132270F4E68F9F200D311D11248C8990E0880F86
S1132280991FAC01440F551F440F551F840F951F10
S1132290280F391F698970E06053710940E157E2E2
S11322A0649FC001659F900D749F900D1124280FA9
S11322B0391F6A8970E06053710948EE53E0649FE6
S11322C0C001659F900D749F900D1124820F931F80
S11322D0F8019483838380E095C02C8930E0205DED
S11322E034418A89F4E68F9F200D311D11248B8996
S11322F090E0880F991FAC01440F551F440F551FE0
S1132300840F951F280F391F698970E06053710984
S113231048EE53E0649FC001659F900D749F900D3B
S11323201124820F931FF8019483838380E06AC091
S11323302B8930E0205132408A8990E0880F991F20
S1132340AC01440F551F440F551F840F951F820F76
S1132350931F2989F4E62F9F800D911D1124805C21
S11323609241F8019483838380E04CC04A8989892F
S113237090E0880F991F9C01220F331F220F331FF7
S1132380820F931F840F911D80519240F801948312
S1132390838380E037C0898990E0C097F8019483F3
S11323A0838380E02FC081E02DC082E02BC083E0D6
S11323B029C084E027C085E025C086E023C087E0EB
S11323C021C088E01FC089E01DC08AE01BC08BE0EB
S11323D019C08BE017C08CE015C08CE013C0898B4A
S11323E0AC0FBD1F1296FE01729681E024CF898B3B
S11323F08F81833209F4E6CE8A8B8885833209F093
S1132400ECCEE2CE65960FB6F894DEBF0FBECDBF1C
S1132410DF91CF911F910F910895FF920F931F9316
S1132420CF93DF93CDB7DEB760970FB6F894DEBFD6
S11324300FBECDBFFC018081805D898383E28A83E6
S113244091812DEC929F212D112426952695269578
S1132450322F305D3B83220F322F330F330F230F84
S1132460921B905D9C838D8382818A3028F4805DE9
S11324708E83FF24F39441C08436B0F49DEC899F8D
S1132480912D1124969596959695292F205D2E834E
S1132490990F292F220F220F920F891B805D8F83A2
S11324A06894FF24F1F829C099E2899F912D1124A1
S11324B092959F70292F205D2E83282F34E6939FB9
S11324C0201911249DEC299F212D11242695269550
S11324D02695205D2F83899F912D1124969596959D
S11324E09695990F292F220F220F920F891B805D39
S11324F088870F2EF3E0FF2EF02D0F2D10E0DE0164
S1132500A00FB11F83E216968C93169743815481D2
S11325104A30510528F4FD01405D478381E07DC1C7
S11325204436510520F5FE01E00FF11F9A01ADEC90
S1132530BCECDCD596958795969587959695879569
S1132540282F205D2783FE01E00FF11F9C01220F3D
S1132550331F880F991F880F991F880F991F820FA7
S1132560931F481B590B405D408782E056C1483E8B
S113257083E0580708F044C0FE01E00FF11F9A0100
S11325803695279536952795ABE7B4E1AFD5969563
S11325908795282F205D2783FE01E00FF11F64E655
S11325A0689F9001699F300D1124CA01821B930B0F
S11325B09C01ADECBCEC9AD596958795969587953C
S11325C096958795805D8087FE01E00FF11F9A0143
S11325D08DD59695879596958795969587959C0123
S11325E0220F331F880F991F880F991F880F991F77
S11325F0820F931F481B590B405D418783E00DC137
S1132600403197E2590708F06DC0FE01E00FF11F59
S11326109A01369527953695279536952795A5ECF5
S1132620B0E264D5929582958F7089279F7089272F
S1132630282F205D2783FE01E00FF11F68EE73E071
S1132640869F9001879F300D969F300D1124CA01FB
S1132650821B930B9C013695279536952795ABE7FE
S1132660B4E144D596958795805D8087FE01E00F9F
S1132670F11F9A01369527953695279537D5969566
S1132680879564E6689F9001699F300D1124CA0103
S1132690821B930B9C01ADECBCEC28D596958795D9
S11326A09695879596958795805D8187FE01E00FC5
S11326B0F11F9A011BD596958795969587959695C2
S11326C087959C01220F331F880F991F880F991F2C
S11326D0880F991F820F931F481B590B405D428737
S11326E084E09BC0FE01E00FF11F9A013295229510
S11326F02F7023273F702327A7E4B3E0F7D49695E0
S113270087959695879596958795282F205D27839D
S1132710FE01E00FF11F60E177E2869F9001879F41
S1132720300D969F300D1124CA01821B930B9C011E
S1132730369527953695279536952795A5ECB0E2DD
S1132740D5D4929582958F7089279F708927805D53
S11327508087FE01E00FF11F9A0136952795369583
S1132760279536952795C2D4929582958F7089279F
S11327709F70892768EE73E0869F9001879F300DD4
S1132780969F300D1124CA01821B930B9C01369530
S1132790279536952795ABE7B4E1A8D49695879508
S11327A0805D8187FE01E00FF11F9A013695279520
S11327B0369527959BD49695879564E6689F9001F6
S11327C0699F300D1124CA01821B930B9C01ADEC4F
S11327D0BCEC8CD496958795969587959695879518
S11327E0805D8287FE01E00FF11F9A017FD49695E8
S11327F0879596958795969587959C01220F331F0B
S1132800880F991F880F991F880F991F820F931F94
S1132810481B590B405D438785E0080F111DFE01DD
S1132820E00FF11F93E29783FE01E00FF11F9DE09B
S113283090879F2D985FF92EF80EBCDB8F15E8F377
S11328406F2DCE01019664DB60960FB6F894DEBF5F
S11328500FBECDBFDF91CF911F910F91FF900895CF
S11328609FB7F8946B9A2AE02A95F1F700C081117A
S11328706B9825E42A95F1F70000639B80E025EE30
S11328802A95F1F700006B989FBF95E39A95F1F7AD
S11328900000089573986B9A87E897E00197F1F721
S11328A000C000009FB7F8946B98EFEFF0E0319709
S11328B0F1F700C000008CB19FBFE7E8F6E0319764
S11328C0F1F700C00000639B02C08870089581E0A6
S11328D00895CF93DF93C82FD8E08C2F8170C0DF89
S11328E0C6958111C068D150C1F78C2FDF91CF916B
S11328F00895FF920F931F93CF93DF93F82EEB016C
S1132900C9DF209759F085E5E4DF8E01085F1F4F8A
S11329108991DFDFC017D107D9F702C08CECD9DF6A
S11329208F2DD7DFDF91CF911F910F91FF900895E5
S11329308FEFCFCFDF92EF92FF920F931F93CF933E
S1132940DF93D82EEB01A6DF811124C080EFC1DF15
S1132950E12C10E40F2EF8EFFF2EF02DF10E81E0A4
S11329607FDF082F81E07CDF882319F00023D1F07A
S113297014C0011122C01D15D8F0888180FF12C037
S1132980D11219C00FC011501F11E9CF2196111196
S1132990E1CF1AC0EE24EA9417C00F2EFEEFEF2EFB
S11329A0F02D12C0802F5CDF988196959883EBCF31
S11329B0E12E01E002C0E12E01E0802F51DF988179
S11329C0969590689883DFCF8E2DDF91CF911F91DC
S11329D00F91FF90EF90DF900895CF93DF931F92B4
S11329E0CDB7DEB78FEF80937E0090EC90937C00A0
S11329F010927B0097EC90937A00898389818823D5
S1132A0001F1609158036830E0F4898170E0660F49
S1132A10771F660F771F660F771F6F587C4F8ADF0B
S1132A20898389818F3F69F089818E3F51F060915C
S1132A3058036F5F609358038981882311F06830CD
S1132A4020F380915803882321F060E070E084E44F
S1132A5050DF0F90DF91CF910895FF920F931F9352
S1132A60CF93DF93082F80915803882369F181E085
S1132A70F7DE882349F180915803882309F110E097
S1132A800F2EF7ECFF2EF02DC12FD0E0BE01660F04
S1132A90771F660F771F660F771F6F587C4F8EEB7B
S1132AA028DF46DF883C20F4C050DE4F888303C013
S1132AB0C050DE4FF8821F5F80915803181720F32F
S1132AC060E070E084E415DF0830E0F4ECE7F0E067
S1132AD08081887F082B0083EAE7F0E080818064AE
S1132AE08083808186FDFDCFE0917800F0917900AC
S1132AF0EF3F83E0F807A9F0F695E795E657FC4F1A
S1132B00849112C0802F90E02091580330E0285F18
S1132B103F4F821793073CF4FC01E850FE4F80813D
S1132B2003C08CED01C08CEDDF91CF911F910F910B
S1132B30FF900895809158030895E82FF0E0EF582E
S1132B40FC4F8081089538EA309380008FE391E050
S1132B50909387008093860021E120938100309335
S1132B60A0009093A7008093A6002093A10081EA7F
S1132B708093B00081E08093B1001092200184E83A
S1132B808093210181E28093730080EA809369003D
S1132B908AE080936A008CE38DBB1092900089E6F2
S1132BA098E190939900809398008CE08093910031
S1132BB082E08093710008951F920F920FB60F92D6
S1132BC011242F933F934F935F938F939F938091FF
S1132BD026019091270120911202223058F420916D
S1132BE06D0330916E03AC01421B530B5093700381
S1132BF040936F0390936E0380936D038091120250
S1132C00882329F0809112028150809312029F91AF
S1132C108F915F914F913F912F910F900FBE0F9025
S1132C201F9018951F920F920FB60F9211240BB696
S1132C300F922F933F934F935F938F939F93EF93B1
S1132C40FF93809124019091250120910E0222305E
S1132C5058F420915C0330915D03AC01421B530B8B
S1132C60509365034093640390935D0380935C03E6
S1132C7080910E02882329F0EEE0F2E080818150F9
S1132C808083FF91EF919F918F915F914F913F913D
S1132C902F910F900BBE0F900FBE0F901F901895A1
S1132CA01F920F920FB60F9211240BB60F922F930F
S1132CB03F934F935F938F939F93EF93FF938091F1
S1132CC024019091250120910F02223058F4209183
S1132CD05E0330915F03AC01421B530B50936703B7
S1132CE04093660390935F0380935E0380910F0289
S1132CF0882329F0EFE0F2E0808181508083FF9106
S1132D00EF919F918F915F914F913F912F910F90F0
S1132D100BBE0F900FBE0F901F9018951F920F922D
S1132D200FB60F9211240BB60F922F933F934F932C
S1132D305F938F939F93EF93FF93809124019091DE
S1132D40250120911002223058F420916003309123
S1132D506103AC01421B530B509369034093680316
S1132D60909361038093600380911002882329F07B
S1132D70E0E1F2E0808181508083FF91EF919F91A7
S1132D808F915F914F913F912F910F900BBE0F90B8
S1132D900FBE0F901F9018951F920F920FB60F92AF
S1132DA011240BB60F922F933F934F935F938F93FE
S1132DB09F93EF93FF93809124019091250120919B
S1132DC01102223058F42091620330916303AC0164
S1132DD0421B530B50936B0340936A03909363031A
S1132DE08093620380911102882329F0E1E1F2E0EB
S1132DF0808181508083FF91EF919F918F915F91AA
S1132E004F913F912F910F900BBE0F900FBE0F90DB
S1132E101F9018951F920F920FB60F9211240BB6A4
S1132E200F922F933F938F939F93AF93BF93EF93FF
S1132E30FF938091120280936C0382E080931202CC
S1132E4080E090E032E0FC01E25FFD4F2081DC0194
S1132E50A65FBD4F2C93308301968430910599F77A
S1132E60FF91EF91BF91AF919F918F913F912F91DE
S1132E700F900BBE0F900FBE0F901F9018951F92CE
S1132E800F920FB60F9211248F9381E080935A030F
S1132E9080915903843031F481E080935B03109274
S1132EA0590305C0809159038F5F809359038F9113
S1132EB00F900FBE0F901F901895653608F085C0CF
S1132EC0833009F440C020F48130E9F058F50CC097
S1132ED0853009F453C008F447C0863009F45DC056
S1132EE0873009F072C063C02FE331E0629FC001F4
S1132EF0639F900D112464E670E0BDD070938D0043
S1132F0060938C0008952FE331E0629FC001639FBA
S1132F10900D112464E670E0AED070938B00609342
S1132F208A0008952FE331E0629FC001639F900DF2
S1132F30112464E670E09FD0261B370B3093AD005C
S1132F402093AC0008952FE331E0629FC001639F9A
S1132F50900D112464E670E08ED0261B370B30935D
S1132F60AB002093AA0008952FEF629FC0011124A3
S1132F7064E670E080D06093B40008952FE331E0FC
S1132F80629FC001639F900D112464E670E073D0CA
S1132F90709389006093880008952FEF629FC001A9
S1132FA0112464E670E067D06093B30008952FE3C2
S1132FB031E0629FC001639F900D112464E670E0CC
S1132FC05AD07093A9006093A800089590E0FC0182
S1132FD0E65FFD4F2081211116C0FC01EE0FFF1F9B
S1132FE0EC59FC4F20813181C901A0E0B0E09C0183
S1132FF0AD01220F331F441F551F60E778E389E3B7
S113300090E04CD002C020E030E0822F932F08954E
S113301080916C03811111C0A0916F03B091700372
S1133020209108023091090261D09B01AC0160E457
S11330307AE389E69DE032D002C020E030E0822FBE
S1133040932F089590930902809308020895809124
S11330505B03882321F010925B0381E0089580E0F4
S1133060089580915A03882321F010925A0381E035
S1133070089580E0089597FB072E16F4009406D077
S113308077FD08D03FD007FC05D03EF4909581959C
S11330909F4F0895709561957F4F0895A1E21A2E70
S11330A0AA1BBB1BFD010DC0AA1FBB1FEE1FFF1FE8
S11330B0A217B307E407F50720F0A21BB30BE40B38
S11330C0F50B661F771F881F991F1A9469F760957F
S11330D07095809590959B01AC01BD01CF01089539
S11330E0EE0FFF1F0590F491E02D1994A29FB001FB
S11330F0B39FC001A39F01D0B29F700D811D112405
S1133100911D0895AA1BBB1B51E107C0AA1FBB1F39
S1133110A617B70710F0A61BB70B881F991F5A955F
S1133120A9F780959095BC01CD010895DC01CB01F0
S1133130FC01F999FECF06C0F2BDE1BDF89A3196C3
S113314000B40D9241505040B8F70895A8E1B0E0A2
S113315042E050E0EDCF262FF999FECF92BD81BD1C
S1133160F89A019700B4021639F01FBA20BD0FB6C1
S1133170F894FA9AF99A0FBE08950196272FECDF76
S1133180EACF262FF999FECF1FBA92BD81BD20BD8B
S11331900FB6F894FA9AF99A0FBE01960895F1DFE2
S10B31A0272FF0CFF894FFCFB4
S11331A82828282828282828A9000202020202021E
S10731B80202020009
S9030000FC
